:020000040000fa
:04019400e003000084
:020000040000fa
:0401bc00e00300005c
:020000040000fa
:0401c400e003000054
:020000040000fa
:0401c800e003000050
:020000040000fa
:0401cc00e00300004c
:020000040000fa
:0401d000e003000048
:020000040000fa
:0401d400e003000044
:020000040000fa
:0401d800e003000040
:020000040000fa
:0401dc00e00300003c
:020000040000fa
:0401e000e003000038
:020000040000fa
:04019800e003000080
:020000040000fa
:0401e400e003000034
:020000040000fa
:0401e800e003000030
:020000040000fa
:0401ec00e00300002c
:020000040000fa
:0401f000e003000028
:020000040000fa
:04032800e0030000ee
:020000040000fa
:04032c00e0030000ea
:020000040000fa
:04019c00e00300007c
:020000040000fa
:0401a000e003000078
:020000040000fa
:0401a400e003000074
:020000040000fa
:0401a800e003000070
:020000040000fa
:0401ac00e00300006c
:020000040000fa
:0401b000e003000068
:020000040000fa
:0401b400e003000064
:020000040000fa
:0401b800e003000060
:020000040000fa
:04019000e003000088
:020000040000fa
:0401f800e003000020
:020000040000fa
:0401fc00e00300001c
:020000040000fa
:04020000e003000017
:020000040000fa
:04020400e003000013
:020000040000fa
:0401f400e003000024
:020000040000fa
:04020800e00300000f
:020000040000fa
:04020c00e00300000b
:020000040000fa
:04021000e003000007
:020000040000fa
:04021400e003000003
:020000040000fa
:04000c00e00300000d
:020000040000fa
:04008c00e00300008d
:020000040000fa
:0400a400e003000075
:020000040000fa
:0400f800e003000021
:020000040000fa
:04004000e0030000d9
:020000040000fa
:04008400e003000095
:020000040000fa
:0400b400e003000065
:020000040000fa
:0400c800e003000051
:020000040000fa
:0400d400e003000045
:020000040000fa
:0400e000e003000039
:020000040000fa
:04027c00e00300009b
:020000040000fa
:04028800e00300008f
:020000040000fa
:0402fc00e00300001b
:020000040000fa
:04004400e0030000d5
:020000040000fa
:04008800e003000091
:020000040000fa
:0400b800e003000061
:020000040000fa
:0400cc00e00300004d
:020000040000fa
:0400d800e003000041
:020000040000fa
:0400e400e003000035
:020000040000fa
:04028000e003000097
:020000040000fa
:04028c00e00300008b
:020000040000fa
:04030000e003000016
:020000040000fa
:0402ec00e00300002b
:020000040000fa
:04021800e0030000ff
:020000040000fa
:0402f000e003000027
:020000040000fa
:04021c00e0030000fb
:020000040000fa
:0402f400e003000023
:020000040000fa
:0402e400e003000033
:020000040000fa
:0402f800e00300001f
:020000040000fa
:0402e800e00300002f
:020000040000fa
:04015c00e0030000bc
:020000040000fa
:04016000e0030000b8
:020000040000fa
:04016400e0030000b4
:020000040000fa
:04003000e0030000e9
:020000040000fa
:04003400e0030000e5
:020000040000fa
:04007400e0030000a5
:020000040000fa
:04015400e0030000c4
:020000040000fa
:04015800e0030000c0
:020000040000fa
:0400f400e003000025
:020000040000fa
:04003800e0030000e1
:020000040000fa
:04004800e0030000d1
:020000040000fa
:04007000e0030000a9
:020000040000fa
:04007c00e00300009d
:020000040000fa
:0400dc00e00300003d
:020000040000fa
:04005c00e0030000bd
:020000040000fa
:04001000e003000009
:020000040000fa
:04012800e0030000f0
:020000040000fa
:04012c00e0030000ec
:020000040000fa
:04026800e0030000af
:020000040000fa
:04011c00e0030000fc
:020000040000fa
:04002800e0030000f1
:020000040000fa
:04006400e0030000b5
:020000040000fa
:04007800e0030000a1
:020000040000fa
:04009000e003000089
:020000040000fa
:04022c00e0030000eb
:020000040000fa
:04023000e0030000e7
:020000040000fa
:04023400e0030000e3
:020000040000fa
:04023800e0030000df
:020000040000fa
:04023c00e0030000db
:020000040000fa
:04024000e0030000d7
:020000040000fa
:04024400e0030000d3
:020000040000fa
:04024800e0030000cf
:020000040000fa
:04024c00e0030000cb
:020000040000fa
:04025000e0030000c7
:020000040000fa
:04025400e0030000c3
:020000040000fa
:04025800e0030000bf
:020000040000fa
:04025c00e0030000bb
:020000040000fa
:04026c00e0030000ab
:020000040000fa
:04027000e0030000a7
:020000040000fa
:04027400e0030000a3
:020000040000fa
:04027800e00300009f
:020000040000fa
:04028400e003000093
:020000040000fa
:04029000e003000087
:020000040000fa
:04029400e003000083
:020000040000fa
:04029800e00300007f
:020000040000fa
:04029c00e00300007b
:020000040000fa
:0402a000e003000077
:020000040000fa
:0402a400e003000073
:020000040000fa
:0402a800e00300006f
:020000040000fa
:0402ac00e00300006b
:020000040000fa
:0402b000e003000067
:020000040000fa
:0402b400e003000063
:020000040000fa
:0402b800e00300005f
:020000040000fa
:0402bc00e00300005b
:020000040000fa
:0402c000e003000057
:020000040000fa
:0402c400e003000053
:020000040000fa
:0402c800e00300004f
:020000040000fa
:04030400e003000012
:020000040000fa
:04030800e00300000e
:020000040000fa
:04030c00e00300000a
:020000040000fa
:04031000e003000006
:020000040000fa
:04031400e003000002
:020000040000fa
:04031800e0030000fe
:020000040000fa
:04008000e003000099
:020000040000fa
:0400a800e003000071
:020000040000fa
:0400ac00e00300006d
:020000040000fa
:0400b000e003000069
:020000040000fa
:0400c400e003000055
:020000040000fa
:0400d000e003000049
:020000040000fa
:04003c00e0030000dd
:020000040000fa
:0400fc00e00300001d
:020000040000fa
:04010400e003000014
:020000040000fa
:04013000e0030000e8
:020000040000fa
:04016800e0030000b0
:020000040000fa
:04012000e0030000f8
:020000040000fa
:04006c00e0030000ad
:020000040000fa
:0400c000e003000059
:020000040000fa
:04026400e0030000b3
:020000040000fa
:04001800e003000001
:020000040000fa
:04006000e0030000b9
:020000040000fa
:04000800e003000011
:020000040000fa
:0402cc00e00300004b
:020000040000fa
:0402d000e003000047
:020000040000fa
:0402d400e003000043
:020000040000fa
:0402d800e00300003f
:020000040000fa
:0402dc00e00300003b
:020000040000fa
:0402e000e003000037
:020000040000fa
:04033400e0030000e2
:020000040000fa
:04033000e0030000e6
:020000040000fa
:04017000e0030000a8
:020000040000fa
:04017400e0030000a4
:020000040000fa
:04017800e0030000a0
:020000040000fa
:04017c00e00300009c
:020000040000fa
:04012400e0030000f4
:020000040000fa
:04016c00e0030000ac
:020000040000fa
:04013400e0030000e4
:020000040000fa
:04013800e0030000e0
:020000040000fa
:04013c00e0030000dc
:020000040000fa
:04014000e0030000d8
:020000040000fa
:04014400e0030000d4
:020000040000fa
:04014800e0030000d0
:020000040000fa
:04014c00e0030000cc
:020000040000fa
:04015000e0030000c8
:020000040000fa
:0400e800e003000031
:020000040000fa
:04010000e003000018
:020000040000fa
:04001c00e0030000fd
:020000040000fa
:04002400e0030000f5
:020000040000fa
:04018400e003000094
:020000040000fa
:04018000e003000098
:020000040000fa
:04018c00e00300008c
:020000040000fa
:04018800e003000090
:020000040000fa
:04006800e0030000b1
:020000040000fa
:0400bc00e00300005d
:020000040000fa
:04026000e0030000b7
:020000040000fa
:04022000e0030000f7
:020000040000fa
:04004c00e0030000cd
:020000040000fa
:04005000e0030000c9
:020000040000fa
:04022400e0030000f3
:020000040000fa
:04009c00e00300007d
:020000040000fa
:0400a000e003000079
:020000040000fa
:04022800e0030000ef
:020000040000fa
:04011400e003000004
:020000040000fa
:04011800e003000000
:020000040000fa
:04002000e0030000f9
:020000040000fa
:04001400e003000005
:020000040000fa
:04002c00e0030000ed
:020000040000fa
:0400ec00e00300002d
:020000040000fa
:04031c00e0030000fa
:020000040000fa
:04005400e0030000c5
:020000040000fa
:0400f000e003000029
:020000040000fa
:04032000e0030000f6
:020000040000fa
:04009400e003000085
:020000040000fa
:04009800e003000081
:020000040000fa
:04010800e003000010
:020000040000fa
:04032400e0030000f2
:020000040000fa
:04010c00e00300000c
:020000040000fa
:04011000e003000008
:020000040000fa
:080000000002040000000000f2
:020000040000fa
:100400002f8c21000eff26000e0188000000000046
:10041000100020000000e000020032000001200077
:100420002002880014000700060107000000e00019
:1004300003003a0060cb21000100200002003700d9
:100440000000200001002000810f70000100320038
:100450000f000700000020000000e0000200320052
:1004600000000200000000001c220200000000004a
:100470000040da000000fe00200020000000e00044
:1004800002003200100020009001880000000600e9
:10049000a1028800800478000000eb001f003700f4
:1004a000e284440054a0b4009905ba00e2844400f8
:1004b00054a0b4009906ba00e284440054a0b400e9
:1004c0000006eb00476fde00fd07b200ae018800ba
:1004d000636ce10003003a000ad801000000eb0061
:1004e0000e003700606ce10008003a00004deb00a0
:1004f0000a05e800020039003420ec000af0a000f0
:100500008b05e900f9ff3e00040037006168e10057
:10051000010032000086eb000b00070019c7ba008b
:100520001905ba000e04e00003003a000a00e000da
:10053000dbff3a0000000600fe07b200ae028800b2
:100540008a047800f5ff37000cd0a300e20f4d00bd
:100550001c00390089027800354dba000a05e80010
:10056000020039003420ec000af0a0008b05e900fd
:100570000f003200254dba000a05e80002003900dc
:100580003420ec000af0a0008b05e90008003200de
:100590000c00e0000600320015cdba000a05e800a4
:1005a000020039003420ec000af0a0008b05e900bd
:1005b0008984e80054a0b4000b00e000e2ff3a0098
:1005c000000006009902ba00055d78008b05e9007d
:1005d000f7ff3200c82ade00055d78008b05e900d0
:1005e000f3ff32000c00e000f1ff320019ddba0029
:1005f000eeff37003600f800809fbe00829fbe00ed
:10060000849fbe00869fbe003200f8003400f800d0
:1006100010002000a00188001000200000d0fe0083
:10062000106180000cc8a900b438ed00b418e200d5
:1006300003003a00e0012000a0c58800bc18a80013
:10064000b638ed00b618e20003003a00400620007c
:10065000b0c58800bc38a800b838ed00b818e20072
:1006600003003a00007d2000c0c58800bc58a800e7
:10067000ba38ed00ba18e20003003a000071220017
:10068000d0c58800bc78a8005b0ea8005c030700fa
:100690005b0ea9000cc8ab0026003a0042a0a800df
:1006a00042c0a900be18ab0022003a00bc18ab0043
:1006b00028003a00be38ab001e003a00bc38ab0040
:1006c00006003200be38a800bc38a9001e0b070087
:1006d000bc38ab00fcff3a00be38a900be58ab00e6
:1006e00014003a00bc58ab0006003200be58a80007
:1006f000bc58a900d00b0700bc58ab00fcff3a0067
:10070000be58a900be78ab000a003a00bc78ab0026
:1007100006003200be78a800bc78a900d50b0700ff
:10072000bc78ab00fcff3a00be78a90042c0a8002c
:1007300042a0a9003400f9003200f9004f03be00c6
:100740004f02be004f01be004f00be003600f90050
:1007500000400600be18a800bc18a900d00a070077
:10076000bc18ab00fcff3a00be18a900d1ff37004f
:1007700000a0fe0090c580000188a9003e82ab0069
:100780000c003a00b018e3000a0032000287210092
:10079000800041009180fb00411288000000e800c9
:1007a000f003b2003e82ab0002003a00b018e30052
:1007b000f7ff3a0090c588000080fe000040060068
:1007c0000040da000000fe00839f68000100e000a6
:1007d00002003d0060001000e08018000300e0000f
:1007e00002003d0060011100e081190005000700d2
:1007f0004f00e00002003b0060001000e0801800a5
:10080000000006006022b800060220000000d000b0
:100810008180d2000482d2008582d2000000a00034
:100820000202520083825a00030031000202420099
:1008300083824a000000a1000603e900f3ff3a00aa
:080840000000060000000500a5
:020000040000fa
:0401c000fa0200003f
:020000040000fa
:04005800b8030000e9
:020000040000fa
:020000040005f5
:047e5000ddffff0053
:020000040000fa
:020000040005f5
:047e4000f453ff00f8
:020000040000fa
:020000040005f5
:047e38007bffff00cd
:020000040000fa
:020000040005f5
:047e3000f8ffff0058
:020000040000fa
:100848001000fa00889fbe008a9fbe008c9fbe00e1
:10085800e00f5000e08f5800650035000003be002f
:10086800e00f5100e08f59005e0035000204be0021
:10087800070678008003eb00890678008004eb0007
:100888000c45b800cab79f00dbb79f00066db800db
:10089800aab79f00bbb79f000644b800c053dd004d
:1008a800060020000603440087834c001a0020003d
:1008b8000b0020008abf9f009bbf9f00860f54003b
:1008c800878f5c0003003e006044b80088bf9f002b
:1008d80099bf9f004fb59700dfb59700c055dd0061
:1008e8000a002000eab79f00fbb79f0006044500f6
:1008f80087844d00880f5300898f5b0006003600ff
:100908000fbb97009fbb970061034300e0834b0038
:1009180086bf9f0097bf9f002fb59700bfb5970070
:10092800405dde000b002000aab79f00bbb79f0008
:100938004fb39700dfb39700403bde00070020006d
:100948000a0543008b854b00cab79f00dbb79f00a1
:100958000c6eb8000a0646008b864e000fbb970047
:100968009fbb97000c0543008d854b00e00f50009e
:10097800e08f580014003200e00f5100e08f59005a
:100988001100320016c0b300e00f5100e08f59008b
:100998001c00340012c0b300e00f5000e08f580074
:1009a80016003400824f5300070032000a85ea001f
:1009b8008b85ea0060041400e0841c0002003a0001
:1009c80061054500e0854d000a8abe00888abe00a0
:1009d8004f06be004f05be004f04be000080fa005f
:1009e8000000060060041100e0841900a0ff370031
:1009f80060031000e083180099ff37000041eb0006
:100a0800e8ff37000043eb0012c0b300e00f5000ce
:100a1800e08f5800e3ff3c00f8ff3700ea87470003
:100a2800889fbe008a9fbe008c9fbe008e1f7800e4
:100a3800e00f5000e08f58005f0035000003be0053
:100a4800e00f5100e08f5900580035000204be0045
:100a5800870278006135b800090778008004eb0048
:100a68000546b8000a73b800d6b79f00e7b79f00dd
:100a78000a43b800f6b79f0087bf9f005fb497008e
:100a8800efb49700c043dd00060020007fb5970053
:100a98008fbd97000603450087834d00180020008e
:100aa80009002000860f5500878f5d0001003e0079
:100ab8006044b800c065dd000a0020000605450056
:100ac80087854d00fab79f008bbf9f008a0f5300a0
:100ad8008b8f5b000200360061044400e0844c0008
:100ae8005fb59700efb59700405bde000700200078
:100af800406ede000d0020000606460087864e0088
:100b08000575b8000c0545008d854d000a044400a4
:100b18008b844c00e00f5000e08f58001600320024
:100b2800e00f5100e08f59001300320015c0b300e8
:100b3800e00f5100e08f59002400340012c0b300c8
:100b4800e00f5000e08f58001e00340082cf5200a2
:100b5800090032000884ea008984ea007fb097001f
:100b68008fb89700e00f5000e08f580002003a005d
:100b780061044400e0844c000801be000402e9005e
:100b8800030033008381d1000281d300fbff3700cb
:100b98000200be004f0778004f06be004f05be009a
:100ba8004f04be00af00b100000006006004110051
:100bb800e0841900a6ff370060031000e0831800e6
:100bc8009fff37000041eb00e0ff37008042eb0059
:100bd80012c0b300e00f5000e08f5800dbff3c006c
:100be800f8ff3700ea874700889fbe008a9fbe004b
:100bf8008c9fbe008e1f7800e00f5000e08f5800d9
:100c0800950035000003be00e00f5100e08f590049
:100c1800960035000204be00870278006135b800ee
:100c2800090778008004eb000546b8000a73b8008d
:100c3800d6b79f00e7b79f000a43b800f6b79f00f2
:100c480087bf9f005fb49700efb49700c043dd00f3
:100c5800060020007fb597008fbd9700060345006a
:100c680087834d001800200009002000860f5500da
:100c7800878f5d0001003e006044b800c065dd005c
:100c88000a0020000605450087854d00fab79f0039
:100c98008bbf9f008a0f53008b8f5b0002003600ca
:100ca80061044400e0844c005fb59700efb59700fd
:100cb800405bde0007002000406ede000d002000d3
:100cc8000606460087864e000575b8000c054500e7
:100cd8008d854d000a0444008b844c00e00f5000c1
:100ce800e08f580042003200e00f5100e08f5900b9
:100cf8002500320015c0b300e00f5100e08f590005
:100d08007600340012c0b300e00f5000e08f5800a6
:100d18007700340082cf5200780032000884ea005d
:100d28008984ea007fb397008fbb970060011300a6
:100d3800e0811b0050003a0061044400e0844c004c
:100d48006033b80000022000040250000801be0011
:100d58000402e900030033000201410083814900d5
:100d6800fbff370006017100878171000200be0099
:100d78004f0778004f06be004f05be004f04be0067
:100d8800af00b100000006007fb397008fbb97004b
:100d9800040078000000e900030033008703d10055
:100da8000683d300fbff3700000220000402500036
:100db8000801be000402e9000300330002014100fb
:100dc80083814900fbff37000601710087817100ac
:100dd8000200be004f0778004f06be004f05be0058
:100de8004f04be00af00b10000000600e6ff370068
:100df8007fb397008fbb9700840578008b05e900c7
:100e0800030033008703d1000683d300fbff3700bc
:100e180000022000040250000801be000402e9009c
:100e2800030033000201410083814900fbff3700c2
:100e380006017100878171000200be004f0778002b
:100e48004f06be004f05be004f04be00af00b10004
:100e580000000600ccff370060031000e083180094
:100e6800e00f5100e08f59006aff3d006004110057
:100e7800e084190068ff37000203be00040578000b
:100e88000a05e900030033008703d1000683d30075
:100e9800fbff370000022000040250000801be00da
:100ea8000402e90003003300020141008381490084
:100eb800fbff370006017100878171000200be0048
:100ec8004f0778004f06be004f05be004f04be0016
:100ed800af00b10000000600abff37008042eb0016
:100ee80012c0b300e00f5000e08f580089ff3c00ab
:100ef8000041eb0082cf520088ff3a007fb3970091
:100f08008fbb9700840078008100e900030033005c
:100f18008703d1000683d300fbff370000022000bf
:100f2800040250000801be000402e9000300330077
:100f38000201410083814900fbff3700060171006f
:100f4800878171000200be004f0778004f06be007f
:100f58004f05be004f04be00af00b1000000060000
:100f680089ff37000400fa00889fbe008a9fbe00f0
:100f78008c9fbe000116b800001bb80086bf9f00fa
:100f880097bf9f000015b800c033dd0006002000a1
:100f98000603450087834d00180020000900200043
:100fa800860f5500878f5d0001003e006044b80041
:100fb800c065dd000a0020000605450087854d0054
:100fc8008a0f53008b8f5b000200360061044400d7
:100fd800e0844c000fbb97009fbb9700403bde00ae
:100fe8000700200086bf9f0097bf9f00406ede006d
:100ff8000d0020000606460087864e000118b8003e
:101008000c0640008d864800081a460009924e00da
:101018008a8abe004f06be004f05be004f04be00c0
:101028000080fa0000000600889fbe008a9fbe006c
:101038008c9fbe008e1f7800040778000115b80049
:10104800001eb8000012b800c063dd0006002000d2
:101058000603420087834a00180020000900200088
:10106800860f5200878f5a0001003e006044b80086
:10107800c052dd00040020000602420087824a00b8
:10108800840f5300858f5b00020036006104440022
:10109800e0844c00406ede000d002000405dde0064
:1010a8000b0020000c0545008d854d000118b80087
:1010b8000a0140008b8148000201440083814c00f2
:1010c8000e07e900030033008301d1000281d30039
:1010d800fbff37000200be004f0778004f06be0036
:1010e8004f05be004f04be00000006000003780054
:1010f800810278000500e00004003a004f30de006d
:10110800f1ff27000100400000000600860178007a
:1011180003f0a7008301ea000501780002f0a700a8
:101128000201ea00050009008281d8000001be0022
:10113800020278004f30de00cf28de00808f50009a
:10114800050032000300e000010032000202e8005e
:101158000400ea0000000600020078000000060013
:101168004438ef001438ef004f78ef000000060015
:10117800889fbe008a1f780040bf800021c280007f
:101188006102b9006109b9000201520083815a0065
:10119800ec0f5100e08f5900520034006c80400081
:1011a80020c288005358e20055003200f1f82400ac
:1011b800810f50006c00340011c2880001007800d3
:1011c800ec37ef00b10720000180b9004409dd00c9
:1011d8004c00de000000710051f8200092c0800031
:1011e8000191b900441add00cc10de0081007200c4
:1011f8000100400052bf80000201500053852100c9
:101208009341780011c0b3000304e00002003200eb
:101218005458e2004d003a001438ef00814378003a
:101228000004eb0008037800317820000192b9002f
:10123800c42cdd00cc20de008180740081004400d5
:1012480004002400848f5000300034008482500051
:101258001ac0b300d80d20000894b900424add0036
:101268004e41de0002017200020278000304e00031
:101278003300320003002400838f50004e003400f6
:1012880073bf8800bba10a00740e00000104e000cf
:1012980002003a005858e20039003a0083852100dc
:1012a8008149780090c0880000c0eb000200e0008f
:1012b8000100340010c0b3000500e0000200320055
:1012c800804f55004100320004024300a4c088004a
:1012d800f9842100874c78004f0578004f04be0040
:1012e80000000600e50f4100e08f4900acff3d001b
:1012f8006580500020c288005358e200abff3a00d6
:101308004238ef000000eb00adff37008002eb0031
:1013180008002c00888f50002400350000c5eb0021
:10132800d80d20000894b900424add004e41de0085
:1013380002017200020278000304e000cdff3a00c7
:101348002123200071bf8800ceff37008040eb00ca
:101358004f58e200b0ff3a00a6c0800006047800ab
:1013680081437800b0ff3700c1b02000810f5000e2
:101378001f003c00d0b0200010c2880090ff37004a
:1013880083842100934178008381fb008301e90075
:10139800cf19de008344780048852100094c780085
:1013a80088842100094c7800bcff37008482400003
:1013b80000c5eb00daff370003002c00838f5000d4
:1013c800e0ff3d0073bf8800aeff37000002eb006e
:1013d80004024300a4c08800f9842100874c7800e7
:1013e8004f0578004f04be0000000600bdff37001f
:1013f80010c2880072ff3700af03b000889fbe009c
:101408008a9fbe008c9fbe008e1f78002200f800c5
:101418002400f8002600f8004758e2008b053a003f
:101428005658e20073063a0010c0b30056f8b700e9
:101438006022b800100020000100200004014000d4
:101448008581480002003900f3ff2f00f2ff2f00ca
:101458000200780003047800a2be8800b3be8800aa
:10146800f2bf880003c08800800178000002eb000a
:10147800701b2d0080a1b9000018b8008100410040
:10148800927521000245b80082a2b9000219b8007d
:1014980083014200c052dd00040020000402410024
:1014a800858249001600200007002000840f5100a3
:1014b800858f590001003e006033b800c001dd008f
:1014c800020020000401410085814900820f52007a
:1014d800838f5a000200360061034300e0834b000b
:1014e800405dde000b0020004008de000100200007
:1014f8000a0040008b804800721b2d000244b8008f
:101508000000440081804c000000430081804b00b3
:101518004e09dd004200de0000007100c208de0056
:1015280080017800c3b79f0014c0b300c4df9f00d8
:10153800f0ff2000808f5100020034008042eb0051
:10154800c5df9f0010c0b300f1ff21004fb3970023
:10155800810f530001003c000040eb0053f8b70036
:10156800c1842100914078008100fb008180400007
:101578007e80400000014000e07f21000201400021
:1015880012017800a2af9f00ff80400081804000d8
:10159800010040001000780090af9f00616080005b
:1015a80081bf88007060800090bf8800220cf8001e
:1015b800d817f9004fdc97000804e00027053a0027
:1015c800a4bf800004825000b2bf80000201500016
:1015d80050242a0000a2b9006033b800e00f52007e
:1015e800e08f5a00dc0535000602420087824a0077
:1015f8004fabde00b0ae200080b3b9000028b800c1
:10160800810043006022b800e00f5000e08f5800ce
:10161800c20535000400400085804800450ddd0006
:10162800cb04de0089047500b9af9f0050242a005e
:101638000091b9006000b800e00f5100e08f590038
:10164800a805350000014100818149004f9ade005c
:10165800b0ae200080a2b9000018b8008100420096
:101668006011b800e00f5000e08f58009a0535006f
:101678000200400083804800c50ddd004b00de00fd
:1016880000807500000040003fae97000c0040004d
:10169800719e24000180b9004109dd00cf06de00fb
:1016a8008d067100dda79f00500b200011c280003d
:1016b8000088b900c809dd004804de00088471000c
:1016c8004889de00503024008091b9000044b800f9
:1016d80089044100424add004e44de0008047200dd
:1016e80008f0a7000804ea0065c18000c5af9f00a4
:1016f80076c18000b6a79f0031bb220032c08000af
:101708000191b900c41cdd004c10de00008074009b
:101718000080520042c080000191b900441ddd00e4
:10172800cc10de0081007500810053008001780034
:1017380003f0a7008301ea00d2832000828f5100c2
:10174800d10434000000e0005f06350012002000dc
:1017580075063400b0c727008090b9004480de00c9
:10176800c205dd00cb9f9f00e4c08000040050004c
:101778000882b9004d2bdd004321de000201730011
:10178800c3a9de00e00f5100e08f5900cf043500f7
:101798000203be00070078008003eb0064a3210069
:1017a80084bdb9000432b80085024500b92e2e0068
:1017b8000905b800aab79f00bbb79f0089bdb9004b
:1017c8000933b800870345002fb69700bfb69700c6
:1017d800c065dd000a0020000a0543008b854b0028
:1017e8001c0020000d0020008a0f53008b8f5b0027
:1017f80001003e006066b800c023dd00060020003e
:101808000a0343008b834b00860f5500878f5d00ca
:101818000200360061064600e0864e002fb59700ac
:10182800bfb59700405dde000b002000aab79f00ff
:10183800bbb79f00402ade00050020000a024200d4
:101848008b824a006aa321000a05b80004024500f9
:1018580085824d000402460085824e00e00f51004b
:10186800e08f590007003d000482ea008582ea0003
:10187800e00f5300e08f5b0002003a006102420073
:10188800e0824a00c52ddd004b20de000080750097
:101898002018b400a0b79f0024c1800004025000a3
:1018a80004c2b9004d2edd004321de00020176009e
:1018b800c3a9de00e00f5100e08f5900c0053500d4
:1018c8000203be00070078008003eb0064a3210038
:1018d80084bdb9000432b80085024500b92e2e0037
:1018e8000905b8008ab79f009bb79f0089bdb9005a
:1018f8000933b800870345000fb697009fb69700d5
:10190800c065dd000a0020000a0543008b854b00f6
:101918001c0020000d0020008a0f53008b8f5b00f5
:1019280001003e006066b800c023dd00060020000c
:101938000a0343008b834b00860f5500878f5d0099
:101948000200360061064600e0864e000fb597009b
:101958009fb59700405dde000b0020008ab79f000e
:101968009bb79f00402ade00050020000a024200c3
:101978008b824a006aa321000a05b80004024500c8
:1019880085824d000402460085824e00e00f51001a
:10199800e08f590007003d000482ea008582ea00d2
:1019a800e00f5300e08f5b0002003a006102420042
:1019b800e0824a00c52ddd004b20de000080750066
:1019c8002818b40080af9f000101780002f0a7003a
:1019d8000201ea00d0832000800f51003e04340049
:1019e8000100e000b405350010002000d5053400e2
:1019f800b1c727008180b900c480de00420edd0037
:101a0800dc9f9f00f0c080000080500000c0b9003b
:101a18004d0add004301de0002017200c389de00c9
:101a2800e00f5100e08f59003c0435000200be0071
:101a3800810478008000eb0064a32100848bb90046
:101a48000402b80085024300b72e2e00074eb800e6
:101a5800878bb9000700b80081004300c063dd0030
:101a68000600200006034000878348001a00200073
:101a78000b002000860f5000878f580001003e00a1
:101a88006055b800c020dd000000200006004000be
:101a980087804800800f5300818f5b00020036006a
:101aa80061054500e0854d00406ede000d00200018
:101ab800402ade00050020000c0642008d864a0000
:101ac80064a32100044ab8000c0642008d864a002f
:101ad8000c0645008d864d00e00f5100e08f59003f
:101ae80007003d000c86ea008d86ea00e00f5000f2
:101af800e08f580002003a0061064600e0864e007a
:101b0800c56add004b60de00008072002218b40058
:101b180080b79f0030c180000fb3970000005300ca
:101b280000c0b900cd0cdd004301de000281740065
:101b3800c389de00e00f5100e08f59003c053500f5
:101b48000200be00810478008000eb0064a321003d
:101b5800848bb9000402b80085024300b72e2e001a
:101b6800074eb800878bb9000700b8008100430012
:101b7800c063dd000600200006034000878348009c
:101b88001a0020000b002000860f5000878f580095
:101b980001003e006055b800c020dd0000002000b4
:101ba8000600400087804800800f5300818f5b004b
:101bb8000200360061054500e0854d00406ede00fc
:101bc8000d002000402ade00050020000c0642001f
:101bd8008d864a0064a32100044ab8000c0642001e
:101be8008d864a000c0645008d864d00e00f510099
:101bf800e08f590007003d000c86ea008d86ea0058
:101c0800e00f5000e08f580002003a0061064600dd
:101c1800e0864e00456ddd004b60de00000075007b
:101c28002a18b400f0a79f008fad97000b01ea00b7
:101c3800800078000900280001f0a60009002000b3
:101c48000200e0004220af00360037004400f800f0
:101c580002007800809fbe00140f21002402880033
:101c680001f0a7008100ea0001f0a7008180ea00e6
:101c780002f0a7000201ea0002f0a7000281ea00d0
:101c8800820178001110e6000101fd000000eb0060
:101c9800050009004288d80000027800662c2a0056
:101ca8001301c1001201c1000002b800065e200045
:101cb8001201c4000502b80026ac28001241c40075
:101cc8000502b800a64f24001201c4000502b8009e
:101cd8000502b800465a20001241c4008001cd0018
:101ce800010024001310e700008050004f01be00df
:101cf8008302690005f0a7000000ea004220af0057
:101d08000000e9000100280003f0a70001005000ce
:101d1800f4ff2f000400b9004f00de0081044000ea
:101d28004400f900a99f9f00f02a23002f9e9700e6
:101d38000000460011c920000100b800c30edd00f4
:101d48004d00de0000807600cd08de00000178003e
:101d5800c2a79f00d1c0800081005100a9043300b0
:101d6800d21725000209b8004d19de0040242300cf
:101d78008080400080b729008090b9000080400032
:101d880095043300d21725000201b800cd18de00f3
:101d980082b729008289b90000004100132720007a
:101da8000380b900c27f240053f82f0000004100cf
:101db80081804900cc09dd004400de00008071000c
:101dc800a1c1800001005000cf80de00d2cc2400e9
:101dd80002c4b9004fc9de00898ab9008091b900f0
:101de800020142000900b80081004100420add00fa
:101df800ce02de00850272004202dd00e00f5200d2
:101e0800e08f5a00710435000401be000305780014
:101e18008001eb0060a32100809bb9000010b8008e
:101e280081004300b72e2e000756b800879bb900e3
:101e38000711b80083014300c063dd0006002000dd
:101e4800060341008783490018002000090020008c
:101e5800860f5100878f590001003e006044b8008a
:101e6800c001dd0002002000060141008781490011
:101e7800820f5300838f5b00020036006104440028
:101e8800e0844c00406ede000d0020004008de00bb
:101e9800010020000c0040008d8048006ca3210048
:101ea8000c55b8000000450081804d000004440036
:101eb80081844c00e00f5200e08f5a0007003d007b
:101ec8000884ea008984ea00e00f5100e08f590095
:101ed80002003a0061044400e0844c0009007800e4
:101ee8003618b400e0a79f00126725000281b900e8
:101ef800c218dd004e11de000281700012bf88009a
:101f0800c0c18000e10f4000020032000000e8007c
:101f1800c0c188005058e20003033a0010c0b30063
:101f280050f8b70041c0b30012852100014978007c
:101f380001bf8000e18f5000a60336004e852100c6
:101f48001e4778000e44780055f8b7000e04e000ec
:101f58000b03320059d8bf00e14f5000080332008c
:101f680015c0b30096842100054b7800998521009f
:101f78008e4c780052002000030020006033b80027
:101f88000002eb006135b800d0162300003cb80011
:101f980080dbb9000050b80081004300c043dd0079
:101fa8000600200006034000878348001a0020002e
:101fb8000b002000860f5000878f58004003360022
:101fc800404cde00090020000a0544008b854c00c7
:101fd8004a3bde004658dd00ca50de008100700032
:101fe8004650dd00000073008000780001f0a70073
:101ff8008100ea000504e000010032001838ef0013
:10200800630bb9008783d1000683d3000500240041
:1020180006835200840f530006033d000002eb00c4
:102028000000e0000c0334000400780012c08800af
:1020380023c08800e6322c0027002000860f5100bc
:10204800878f59000d033400fd322c001dc0880015
:102058002d0020002dc08800b4c088004978ef000a
:102068005278ef0081004200c1c08800f2ff2300cf
:10207800828f50000e03340001002400c1c0880084
:102088005558e20006003200d01725004fa19700ee
:102098000090b900c109dd004f00de00008071002a
:1020a800f1ff2300010160007911b8004c1add002e
:1020b8004411de0002017200c590de007f0161005c
:1020c8004911dd00818140000000210083014000aa
:1020d800930178000102e800040242000402400073
:1020e8009486110002eab900422bdd00ce26de00fc
:1020f8008d0673008d864100830c2000818141008c
:10210800838141008301400093017800910cb00065
:102118008180400081004000118011000090b900ca
:10212800420cdd004e00de00000074000086410015
:10213800bfac97000cc8b900420ddd004e00de00b0
:1021480000007500afad970000805500dfa0970034
:102158000d89b900421add004e11de00020172003d
:1021680002015000a2af9f0010c0b3005358e20014
:10217800050032000e04e000030032000040eb00ce
:102188004d58e200df0332000e38ef00c0c79f0051
:102198008000eb00b19f9f00d29020002fab9700ea
:1021a80002b1b900461cdd004a11de0002017400cc
:1021b800028540008a04780001002c00810f550038
:1021c80001003d008104780001002400818f540043
:1021d8000100340081047800bfad97000dd9b90023
:1021e800c218dd004e11de00028170009fa9970021
:1021f800828041005fa2970004e1b900c21add00a5
:102208004e11de00028172000281500092af9f00e1
:102218000004e00007033a004e58e20005033a00c4
:1022280086c08000f69f9f0006007800d2902000ac
:102238001fac970002c1b900c61ddd004a11de00bf
:1022480002817500820540000b04780000002c0014
:10225800808f550001003d00000478000000240034
:10226800800f5400010034000004780008c1b90050
:102278004218dd004e11de000201700009c8b900e5
:10228800c209dd004e00de000080710080004100c0
:102298000002eb00a49f9f004240a90022003400e6
:1022a800100020008181cf00030bdd004400f800fe
:1022b800140f210024028800d44f2b001301c10001
:1022c8000632b800b4cc22001241c0000532b80072
:1022d800244521001201c0000532b800a486200060
:1022e8001241c0000532b800f41d20001201c000e0
:1022f80024a825000407c90080814100c11ade0016
:102308000500c8008700cd000600200054502b00af
:102318000300a700043bb9004f33de000700430069
:102328004400f900a09f9f002f999700c0cc23007c
:10233800800f510011003400cf91de000000200012
:10234800010021001ef90700d1cc23000180b9004b
:10235800c20add004e00de000080720000c9b9002c
:10236800421bdd00ce14de008904730000c0b900f2
:102378004209dd004e04de000804710009e0b900de
:10238800c209dd004e00de000080710008e9b900d6
:10239800421add004e11de000201720002015000f7
:1023a80082a79f0008e0b900c20add004e00de00e7
:1023b8000080720009e9b900421bdd004e11de0001
:1023c8000201730002014000e29f9f000e04e0003a
:1023d8009c0232004fdc97000804e0001e033a001c
:1023e800f1ff2e00cfb4970081804400e0ff200069
:1023f800808f500048033600d27623006f9e9700e6
:1024080002e1b900c21edd004e11de000281760035
:102418000fa097008080d1000100ea000200500060
:10242800010151008fa09700828f500076033c0075
:1024380092033d008fa1970082007800808f5100a1
:102448000100340080017800808f500001003d00b9
:102458008000780081804100610ab90060021200a2
:10246800e0821a008582d1000482d3008fa19700f0
:1024780003034200719e240001b3b900c23add0093
:102488004e33de00068372000683d10093382100a4
:1024980003b3b900080022001927200006034400ee
:1024a80087834c00423edd004e33de000603760093
:1024b8004e06200006074700020142000193b900ba
:1024c800c23edd004e31de00028176000281d1007d
:1024d8000393b9000603440087834c004239dd00aa
:1024e8004e33de00060371004606b00096a79f0033
:1024f800000042000180b900420add004e00de0003
:10250800000072000080d1000380b9000000440080
:1025180081804c00c20add004e00de00008072009f
:102528004106200080804000d076230052c0800001
:102538000091b900431edd004d11de000201760056
:102548000280d100b2472200cfae970002e9b9005d
:10255800411add004f11de00020172000281d10034
:1025680002005000cf9a9700050050002fb3970043
:10257800c231dd000300500072b622000283b900a8
:102588008783d1000683d300e00f5300e08f5b0000
:102598004a0235000602be00050078008002eb0002
:1025a80062a3210082acb9000221b8008301440073
:1025b800b92e2e000906b800ccb79f00ddb79f00e2
:1025c80089acb9000922b80085024400c064dd0066
:1025d800080020000804420089844a001c002000ea
:1025e8000d002000880f5200898f5a0001003e001c
:1025f8006066b800c012dd00040020000802420036
:1026080089824a00840f5400858f5c0002003600de
:1026180061064600e0864e004fb49700dfb497008d
:10262800404cde0009002000c8b79f00d9b79f00c2
:102638004019de000300200008014100898149009b
:1026480068a321000804b8000201440083814c00fb
:102658000201460083814e00e00f5300e08f5b00cb
:1026680007003d000281ea008381ea00e00f520082
:10267800e08f5a0002003a0061014100e081490000
:10268800c51cdd004b11de000281740002007800d9
:102698003018b400c09f9f00d076230064c080002b
:1026a80000a2b9004329dd004d20de0000007100c2
:1026b8000080d100b4472200bfa19700049ab90056
:1026c800412bdd004f22de00040273000482d1009a
:1026d800040050005f9c9700080050008fb49700da
:1026e800c249dd000300500073b622000384b9001c
:1026f8008984d1000884d300e00f5400e08f5c0087
:102708002c0235000803be00070078008003eb00a8
:1027180064a3210084beb9000432b80085024600d3
:10272800b32e2e000306b800ecaf9f00fdaf9f004c
:1027380083beb9000333b800870346006fae970025
:10274800ffae9700c061dd000200200002064300d2
:1027580083864b001200200003002000c2b79f00b0
:10276800d3b79f008c0f53008d8f5b0003003e0092
:102778006011b800c2b79f00d3b79f00c023dd0027
:10278800060020000c0143008d814b00c2af9f0062
:10279800d3af9f00820f5600838f5e00060036007d
:1027a8004fb69700dfb6970061064600e0864e00f8
:1027b800ccb79f00ddb79f006fa99700ffa99700ce
:1027c800401bde0007002000402ade000500200034
:1027d8000602420087824a0066a321000603b80069
:1027e8000402430085824b004fb69700dfb697007e
:1027f8000402460085824e00e00f5400e08f5c0022
:1028080009003d000482ea008582ea004fa997008a
:10281800dfa99700e00f5100e08f590002003a004d
:1028280061024200e0824a00c529dd004b20de003b
:10283800008071003218b40083382100830f5700dc
:1028480004003e00730c2000830f570000023e0076
:102858008301e800d3be8800833821001fa29700b7
:10286800830f520005003e0084027800730c20009c
:10287800838f5200f1013e008301e800e3be880027
:1028880083382100838f5000c4013600f3be8800ce
:1028980083007800811f8800dc17f8008403f900a2
:1028a800da17f8004e03f9002e63a800010024008f
:1028b800810f5500ac01340081015500d17420000e
:1028c8002fac970001c2b900c22cdd00ce20de007b
:1028d8008180740015c0b30000c2eb000100e00065
:1028e8000100340014c0b3000300e000030032000c
:1028f8008001eb0084cf5200010032008101780092
:1029080004002400848f5500910134008480550010
:10291800d47420001fad970004d2b900c22ddd0089
:102928004e22de0004827500840278004218f80006
:10293800e417f900c6be80004233de0036bf8800c7
:102948003c8521001c4678007d8421008c4e78004f
:102958003fa9970032c088005fa3970046c088004f
:102968000fa4970058c08800ef9c970069c08800a2
:102978004fa59700dac08800efa59700abc1880083
:10298800bbc188003f9e97008301460073c0880042
:102998004fc19700dd842100824e780000c3eb0010
:1029a8000100e0000100340016c0b30080c1eb0054
:1029b8000400e0000100340013c0b3000100e0008f
:1029c80002003200834f53003f013200ff98970006
:1029d8008582400085c08800cfc19700e28421002d
:1029e80003497800cf99970063c188002fb29700f8
:1029f800e4c0880004c188008faa970025c1880018
:102a080045c1880083c1880070c188000fb3970052
:102a1800f6c0880016c188007fa4970038c18800d6
:102a280058c1880090c188002600f9002400f900e8
:102a38002200f9004f0778004f06be004f05be0080
:102a48004f04be00af03b100000006005678ef0047
:102a5800a0be8000b8be800083fa3700a1bf8800fe
:102a6800b0bf88000001eb000202780050242a0061
:102a780000a2b9006033b800e00f5200e08f5a009e
:102a8800d9fa3d00b400370094c623000482b90087
:102a9800c22edd004e20de00008076004201dd00ff
:102aa800c29f9f00e4c08000040050000882b90063
:102ab8004d2bdd004321de0002017300c3a9de00b7
:102ac800e00f5100e08f590031fb3d006003110019
:102ad800e08319002ffb370090c623000088b90057
:102ae8004209dd00ce00de0081007100c209dd0070
:102af800d39f9f00f0c080000080500000c0b90044
:102b08004d0add004301de0002017200c389de00c8
:102b1800e00f5100e08f5900c4fb3d006000110038
:102b2800e0801900c2fb3700118521009140780030
:102b3800e2cf50004c01320095003e00e1cf50003a
:102b480097003a004e8521001e4778000e44780011
:102b58000e04e000b4013a0040c0b30051f8b700d9
:102b68000144780000bf8000e10f500001003e00e2
:102b78000044eb005d852100884e78000044eb009e
:102b8800b4c0800004f0a7000402ea0010c080006e
:102b980021c0800025852100954278000003be00f1
:102ba80065014000e08148009b852100884d780040
:102bb800e00f5000e08f5800f2fc3d006003100069
:102bc800e08318006134b800d0162300003db80037
:102bd80080cbb9000040b80081004300c053dd003d
:102be80006002000060340008783480018002000e4
:102bf80009002000860f5000878f580036013600e4
:102c0800405dde000b0020000805450089854d0069
:102c18000a85ea008b85ea0060031300e0831b0045
:102c2800ebfc3a0061054500e0854d006033b800d3
:102c3800e8fc37004958e200f8fc3a00c4c08000bc
:102c4800f6ff2300860f52008f013400050278003a
:102c58000000e000f4fc3c000000240004005000e8
:102c680012c0880023c08800e6322c00270020000c
:102c7800860f5100878f5900f3fc3c00e00f51008c
:102c8800e08f5900f4fc3c000238ef000438ef00f4
:102c9800b4c088004978ef005278ef008100420004
:102ca800c1c08800f2ff2300828f5000f2fc3c0074
:102cb8000100e000f2fc3c001838ef00f0fc37009f
:102cc8006055b800404cde00090020000a054400a9
:102cd8008b854c00befc3700f27f200003002000eb
:102ce80063fa3700f0ff2f000100200000014100c7
:102cf800818149004f9ade00b0ae200080a2b90061
:102d08000018b800810042006011b800e00f5000c0
:102d1800e08f580056fa3d00efff3700f47f20009f
:102d2800050020000400400085804800450ddd00b6
:102d3800cb04de0089047500b9af9f0050242a0037
:102d48000091b9006000b800e00f5100e08f590011
:102d58003cfa3d00e3ff3700f6ff2f000700200094
:102d68000602420087824a004fabde00b0ae200068
:102d780080b3b9000028b800810043006022b80081
:102d8800e00f5000e08f580022fa3d00e3ff3700c3
:102d9800e3cf500002013200e4cf5000f0003200cf
:102da800f1c32900810f500008013600d0b020007f
:102db800800f51000501340020c0b30051f8b7005e
:102dc8003838ef0010c0b30001bf8000e18f500019
:102dd8005afc3e000040eb004e8521001e4778005b
:102de8000e44780055f8b7000e04e00059fc3a008c
:102df80063ff3700f4bf800005c08000100020008a
:102e080001002000040140008581480002003900cb
:102e1800f3ff2f00f2ff2f00020078000304780070
:102e2800a2be8800b3be8800f2bf880003c0880035
:102e38008df937001038ef000000eb00f09f9f007d
:102e4800fafc37004106200091a79f00010778008f
:102e5800d076230052c080000091b900431edd00e7
:102e68004d11de00020176000280d100b247220037
:102e7800cfae970002e9b900411add004f11de001c
:102e8800020172000281d10002005000cf9a97001f
:102e9800050050002fb39700c231dd000300500039
:102ea80072b622000283b9008783d1000683d3005b
:102eb800e00f5300e08f5b00b6fd3d006002130099
:102ec800e0821b00b4fd37008002eb00ff989700fa
:102ed8008582400085c08800cfc19700e284210028
:102ee80003497800cf99970063c188002fb29700f3
:102ef800e4c0880004c188008faa970025c1880013
:102f080045c1880083c1880070c188000fb397004d
:102f1800f6c0880016c188007fa4970038c18800d1
:102f280058c1880090c188002600f9002400f900e3
:102f38002200f9004f0778004f06be004f05be007b
:102f48004f04be00af03b10000000600bffe37000b
:102f58008000eb0005002c00858f55006cfe3d00bd
:102f6800848045006afe37008001eb0004002c00d5
:102f7800840f550001003d0081014500d1742000f7
:102f88002fad970001d2b900422edd00ce20de0021
:102f98008100760080c2eb004ffe3700730c2000e2
:102fa800838f500028003e00810c2000f1be88006d
:102fb80038fe370060031400e0831c00d2fd3700a0
:102fc80060031100e08319003efa37006001120027
:102fd800e0811a008dfb37000001ea00d4172500b4
:102fe8000412b800cd28de0084482600848ab9007f
:102ff800840f5100010032008100e8008100ea00de
:1030080063fb37000101ea00d41725000412b80059
:103018004d28de00844826008482b900840f5100c0
:10302800010032000000e8000001ea004ffb370011
:1030380060001100e0801900c2fa3700050378002b
:10304800e6be88000efe3700f1be880011fe37008c
:10305800debe880000fe37004106200091a79f00d1
:103068000107780030fd37004e8521001e477800a3
:103078000e4478000e04e00059003200f17c200074
:10308800810f50004b00360030c0b30051f8b70034
:1030980011c0b30000bf8000e10f50003c003600b3
:1030a800528521000149780059d8bf00e14f5000ee
:1030b800abfb3a00b2fe37000d0e2e00dd9f9f00dd
:1030c80081832f004ffa37000c0e2e00cc9f9f00f3
:1030d80080832f00a4f937006044b800405dde000b
:1030e8000b0020000805450089854d000a85ea0087
:1030f8008b85ea0060031300e0831b00c9fe3200e1
:10310800b3fb370079c08000b99f9f008900780021
:10311800c0c79f0020fc3700f15b200091a79f00eb
:103128004e8b200000fd37000001eb00b0c72700e0
:103138008090b9004480de00c205dd00cb9f9f006f
:1031480089f937000000eb00b1c727008180b9007a
:10315800c480de00420edd00dc9f9f0029fa3700a4
:103168004e8521001e4778000e4478000e04e000ca
:103178002800320011c0b30014852100014a7800ec
:103188003838ef0000bf8000e10f5000c4ff3e0058
:103198008040eb005285210001497800c2ff3700ca
:1031a8004e8521001e4778000e4478000e04e0008a
:1031b8000b0032002000200000bf880011c0b300bf
:1031c8005285210001497800b7ff37004e8521005c
:1031d8001e4778000e4478000e04e0001e003a00f6
:1031e80040c0b30051f8b70018c0b30000bf80005a
:1031f800e10f50005efe36005d852100884e7800a4
:103208000044eb005efe3700820178008fa0970033
:103218008afc3700e037ef005d852100884e780092
:103228000044eb0056fe3700f2702200820f500077
:103238000d00360050c0b30051f8b7003838ef0021
:1032480000bf8000e10f5000d1ff360052852100f9
:103258000149780094ff37001000200000bf880063
:103268008040eb00cbff3700e037ef008040eb00f9
:1032780052852100014978008bff370081017800d1
:103288008fa097006dfc37000400e00064fb3c0051
:103298000002eb0062fb3700e617f800e817f900b8
:1032a800e217f800ea17f900b1f707008000eb0011
:1032b8004c58e20001003a0021002000fe80400046
:1032c800e07f2100818040008100400062bf8000d3
:1032d80082087800110020004c58e2000b003200f0
:1032e800fe804000818040000100400071bf8000e6
:1032f800010878004cd8bf000080fb000000e900fe
:103308004f00de004cf8b700000006003100200036
:10331800fe804000818040000100400071bf8000b5
:10332800010878004cd8bf000080fb000000e900cd
:103338004f00de004cf8b70000000600f3ff37002e
:10334800881f780066842100164378000604e00090
:10335800b1003a0010bf800031c5b300827f210060
:1033680001497800957f2100864a7800faf7b7006e
:103378004800de00fbf7b70050c4b300fcf7b70005
:1033880084c5800090c58000000252000482ea00d3
:10339800f403b20080c58000e40f52009b003600a1
:1033a80054002000837f2100028721008402e90065
:1033b800e782620080004100877f21009743780000
:1033c800874878000000e800f003b20011002000f0
:1033d800810f52006d0036000500e0003900320010
:1033e800e18f52002f003200e28f52002700320096
:1033f800e38f52001f003200e48f520017003200a2
:10340800e58f52000f003200e68f520007003200ad
:1034180080004100957f210095427800854878001a
:103428000000e800f003b200210020008183410081
:1034380080024100974a78000000e800f003b200db
:103448008100e8008183410080024100974a7800aa
:103458000000e800f003b2008100e8008183410029
:1034680080024100974a78000000e800f003b200ab
:103478008100e8008183410080024100974a78007a
:103488000000e800f003b2008100e80081834100f9
:1034980080024100974a78000000e800f003b2007b
:1034a8008100e8008183410080024100974a78004a
:1034b8000000e800f003b2008100e800810f52002c
:1034c800320036008183410080024100974a78002b
:1034d8000000e800f003b2008102e8000584410022
:1034e80080034100984b78000000e800f003b20028
:1034f800880278008003410095429000854b78004f
:103508000000e800f003b20081834100800241001e
:10351800b7439000874a78000000e800f003b20043
:103528008183410080024100c7439000874a7800a8
:103538000000e800f003b2008183410080024100ee
:10354800d7439000874a78000000e800f003b200f3
:103558008183410080024100e7439000874a780058
:103568000000e800f003b2008183410080024100be
:10357800f7439000874a78000000e800f003b200a3
:10358800e8804000810f5200ceff3e0080c58800d1
:1035980013028000038ab200030eb2000300780011
:1035a80042a0b60090c580000188a9003e82ab0009
:1035b8000c003a00b018e3000a003200028721002c
:1035c800800041009180fb00411288000000e80063
:1035d800f003b2003e82ab0002003a00b018e300ec
:1035e800f7ff3a0090c588000300780042a0b600b3
:1035f8000643e800e34f530009003e0061842100c0
:10360800864878004f047800000006000400e000b7
:1036180064ff3a00ddff370020bf80004eff37000f
:103628004678ef004f04780000000600f7ff3700e7
:10363800a1842100914078000181fb000201ea0089
:103648004f11de004711dd00b07380000070a1004b
:1036580000007100b07388008140e800e1c060009c
:10366800a08421000148780000000600b1842100f0
:10367800914078000181fb000201ea004f11de0051
:103688004611dd00b07380000060a10000007100e9
:10369800b07388008140e800e1c06000b084210078
:1036a80001487800000006001000200030c38800a0
:1036b800e001200040c388004006200050c3880075
:1036c800007d200060c388000071220070c388005c
:1036d8005a38ef00407d2100140009000018eb0063
:1036e800e27f21002c0009000019eb0002eba80082
:1036f800f10f2f00106080008080600000a0200083
:103708000100700010608800f0ff23000a0bb6006b
:1037180000e0a00050588800f00f2c000a0bb600fb
:103728000080a00050588800f0ff2100082bb60048
:10373800c0ff2f000e2bb60030ff2f000e2bb60057
:1037480050062000a05e8800c05e88006206200047
:1037580090220a00060b00000c0ba8000c2ba800f6
:10376800100ba800104ba80000fe2f00800bb6001d
:103778000020a000005c8800f00f2e00025c800092
:103788008200600001a0a000015c88008a0bb600de
:1037980000a0a000505c8800d00ba900d02ba90085
:1037a800d16ba90000f82f00b25e80008200600093
:1037b8000100a000b15e8800d25e80008200600037
:1037c8000100a000d15e8800040bb6000000a00034
:1037d8002058880000302000d62bb700da2bb7001d
:1037e80000062000022bb700216ba800f08f2f00e5
:1037f8007208b6000090a000904388000cc8a90089
:103808002cc8a80001eba800000ca800010cab0014
:10381800feff32000a0ba800002ca800012cab0008
:10382800feff32000a2ba80000eca80001002800c7
:103838000260800002806000fdff32000aeba800f1
:10384800800c2000e01a8800901c8800f01f880077
:10385800d01a8800801c8800e01f88007138210079
:10386800a11f8800411c8800911a8800801f8800c9
:10387800201c8800701a88005423ef000080200064
:103888006019880010202000101b8800701e880016
:10389800c000200050198800c1002800011b8800c2
:1038a800611e880090198800401b8800a01e8800af
:1038b80000102000a019880030002000f046880081
:1038c80030002800e0468800900d20000012880093
:1038d8004222ef0000022800c011880000c0280022
:1038e800d01188003c22ef0000702000f011880001
:1038f80080ff2f004608b6005000b3003042880011
:103908000188a9002188a80010c0b30059f8b700a1
:103918005878ef0049f8b70052f8b70000000600e1
:10392800800c2000e01a8800901c8800f01f880096
:10393800d01a8800801c8800e01f88007138210098
:10394800a11f8800411c8800911a8800801f8800e8
:10395800201c8800701a88003ce2ab00feff320091
:043968000000060055
:020000040000fa
:10396c00b4180000080000008200000001000100f3
:10397c000001000001000000bc1800000400000061
:10398c00800000007018000044000000800000005f
:10399c0000100000d407000082000000000081002d
:1039ac000001010082010300028302000403840071
:1039bc00030504008504050005860500060686003f
:1039cc00060607008607050008850800050984001f
:1039dc0009030a00820a01000b800b00fe0b7c001d
:1039ec000cfa0c00780df6000d740e00f10e6e0042
:1039fc000feb0f006710e300105f1100db11560096
:103a0c0012d212004c13c70013411400bb14350022
:103a1c0015ae150027169f00161817008f170700f4
:103a2c00187e1800f5186b0019e11900561acb0016
:103a3c001a401b00b41b28001c9b1c000e1d81008f
:103a4c001df31d00641ed5001e461f00b61f250069
:103a5c00209420000321710021de21004b22b700ad
:103a6c00222323008e23f90023632400cd24360067
:103a7c00259e250006266d0026d426003a279f0099
:103a8c00270428006828cc00282e29009129f20050
:103a9c0029532a00b32a13002b712b00d02b2d0095
:103aac002c8a2c00e62c41002d9c2d00f62d4f006d
:103abc002ea72e00ff2e56002fac2f0002305700e1
:103acc0030aa3000fe30500031a23100f3314300f7
:103adc0032923200e0322e00337b3300c7331200b7
:103aec00345d3400a634ef00343735007e35c40025
:103afc00350936004e36920036d43600163757004c
:103b0c0037983700d7371500385338009038cb002a
:103b1c00380639004039790039b13900e9391f00cc
:103b2c003a543a00893abc003aef3a00213b520031
:103b3c003b813b00b03bde003b0b3c00373c630061
:103b4c003c8d3c00b63cde003c053d002c3d51005c
:103b5c003d753d00993dbb003ddd3d00fd3d1d002b
:103b6c003e3b3e00593e75003e913e00ac3ec500ca
:103b7c003ede3e00f53e0c003f223f00363f4a0041
:103b8c003f5d3f006e3f7f003f8e3f009d3fab008f
:103b9c003fb73f00c33fcd003fd73f00e03fe700ba
:103bac003fee3f00f33ff8003ffb3f00fe3fff00be
:103bbc003f004000ff3ffe003ffb3f00f83ff3009b
:103bcc003fee3f00e73fe0003fd73f00cd3fc30053
:103bdc003fb73f00ab3f9d003f8e3f007f3f6e00e5
:103bec003f5d3f004a3f36003f223f000c3ff5004f
:103bfc003ede3e00c53eac003e913e00753e590097
:103c0c003e3b3e001d3efd003ddd3d00bb3d9900b1
:103c1c003d753d00513d2c003d053d00de3cb600a0
:103c2c003c8d3c00633c37003c0b3c00de3bb00061
:103c3c003b813b00523b21003bef3a00bc3a8900f0
:103c4c003a543a001f3ae90039b139007939400049
:103c5c0039063900cb389000385338001538d70066
:103c6c00379837005737160037d4360092364e0047
:103c7c0036093600c4357e0035373500ef34a600e2
:103c8c00345d34001234c700337b33002e33e00034
:103c9c00329232004332f30031a231005031fe0037
:103cac0030aa30005730020030ac2f00562fff00e6
:103cbc002ea72e004f2ef6002d9c2d00412de60038
:103ccc002c8a2c002d2cd0002b712b00132bb30025
:103cdc002a532a00f2299100292e2900cc286800a9
:103cec00280428009f273a0027d426006d260600ba
:103cfc00269e25003625cd0024632400f9238e0052
:103d0c0023232300b7224b0022de21007121030064
:103d1c00219420002520b6001f461f00d51e6400ec
:103d2c001ef31d00811d0e001d9b1c00281cb400e1
:103d3c001b401b00cb1a56001ae119006b19f50039
:103d4c00187e180007188f00171817009f162700e9
:103d5c0016ae15003515bb0014411400c7134c00ea
:103d6c0013d212005612db00115f1100e310670032
:103d7c0010eb0f006e0ff1000e740e00f60d7800b4
:103d8c000dfa0c007c0cfe000b800b00010b82006a
:103d9c000a030a0084090500098508000508860045
:103dac000706070086060600068605000505850041
:103dbc000405040084030400038302000302820050
:103dcc000101010081000000007fff00fffe7e006a
:103ddc00fefdfd007dfdfc00fc7cfc00fbfb7b0084
:103dec00fbfbfa007afafa00f97af900faf87a0091
:103dfc00f8fbf7007bf7fb00f67cf600fdf57e0088
:103e0c00f5fff40080f40200f484f30006f388005c
:103e1c00f20af2008cf10f00f192f00015f099000b
:103e2c00ef1def00a1ee2500eeaaed002eedb40083
:103e3c00ec39ec00bfeb4500ebcbea0052ead900c1
:103e4c00e961e900e8e87100e8f9e70082e70b00b6
:103e5c00e795e6001fe6aa00e535e500c0e44c0056
:103e6c00e4d8e30065e3f200e27fe2000de29c009f
:103e7c00e12be100bae04a00e0dbdf006cdffd0083
:103e8c00de8fde0022deb500dd49dd00dddc7200f8
:103e9c00dc07dc009ddb3300dbcada0062dafa00f7
:103eac00d993d9002cd9c600d861d800fcd798007a
:103ebc00d734d700d2d66f00d60ed600add54d0074
:103ecc00d5edd4008fd43000d4d3d30076d31a00e0
:103edc00d3bfd20064d20a00d2b1d10059d10100b3
:103eec00d1aad00054d0fe00cfa9cf0056cf0200eb
:103efc00cfb0ce005ece0d00cebdcd006ecd20007d
:103f0c00cdd2cc0085cc3900cceecb00a3cb5a0063
:103f1c00cb11cb00c9ca8200ca3cca00f7c9b20097
:103f2c00c96ec9002cc9ea00c8a9c80068c8290014
:103f3c00c8ebc700adc77000c735c700fac6c000d4
:103f4c00c687c6004fc61700c6e1c500acc57700d2
:103f5c00c544c50011c5df00c4aec4007fc4500009
:103f6c00c422c400f5c3c900c39dc30073c34a0077
:103f7c00c322c300fbc2d400c2afc2008bc2670015
:103f8c00c245c20023c20300c2e3c100c5c1a700e1
:103f9c00c18bc1006fc15400c13bc10022c10b00d9
:103fac00c1f4c000dec0ca00c0b6c000a3c09200fd
:103fbc00c081c00072c06300c055c00049c03d0044
:103fcc00c033c00029c02000c019c00012c00d00b1
:103fdc00c008c00005c00200c001c00000c0010044
:103fec00c002c00005c00800c00dc00012c01900fe
:103ffc00c020c00029c03300c03dc00049c05500de
:10400c00c063c00072c08100c092c000a3c0b600e3
:10401c00c0cac000dec0f400c00bc10022c13b000e
:10402c00c154c1006fc18b00c1a7c100c5c1e30061
:10403c00c103c20023c24500c267c2008bc2af00dd
:10404c00c2d4c200fbc22200c34ac30073c39d008a
:10405c00c3c9c300f5c32200c450c4007fc4ae0062
:10406c00c4dfc40011c54400c577c500acc5e10070
:10407c00c517c6004fc68700c6c0c600fac63500b5
:10408c00c770c700adc7eb00c729c80068c8a90036
:10409c00c8eac8002cc96e00c9b2c900f7c93c00f7
:1040ac00ca82ca00c9ca1100cb5acb00a3cbee00fe
:1040bc00cb39cc0085ccd200cc20cd006ecdbd0050
:1040cc00cd0dce005eceb000ce02cf0056cfa900f3
:1040dc00cffecf0054d0aa00d001d10059d1b100ed
:1040ec00d10ad20064d2bf00d21ad30076d3d30047
:1040fc00d330d4008fd4ed00d44dd500add50e0007
:10410c00d66fd600d2d63400d798d700fcd7610032
:10411c00d8c6d8002cd99300d9fad90062daca00d3
:10412c00da33db009ddb0700dc72dc00dddc4900f0
:10413c00ddb5dd0022de8f00defdde006cdfdb0096
:10414c00df4ae000bae02b00e19ce1000de27f00c9
:10415c00e2f2e20065e3d800e34ce400c0e4350091
:10416c00e5aae5001fe69500e60be70082e7f900fb
:10417c00e771e800e8e86100e9d9e90052eacb0010
:10418c00ea45eb00bfeb3900ecb4ec002eedaa00d5
:10419c00ed25ee00a1ee1d00ef99ef0015f0920059
:1041ac00f00ff1008cf10a00f288f20006f38400a3
:1041bc00f302f40080f4ff00f47ef500fdf57c00c2
:1041cc00f6fbf6007bf7fb00f77af800faf87a00ba
:1041dc00f9faf9007afafb00fa7bfb00fbfb7c0096
:1041ec00fcfcfc007dfdfd00fd7efe00fffe7f0063
:1041fc00ff00000081000100018201000302830026
:10420c0002040300840305000485040005058600f0
:10421c0005060600860606000786070005088500c9
:10422c0008050900840903000a820a00010b8000ba
:10423c000bfe0b007c0cfa000c780d00f60d7400d4
:10424c000ef10e006e0feb000f671000e3105f0015
:10425c0011db11005612d200124c1300c71341008f
:10426c0014bb14003515ae00152716009f16180048
:10427c00178f170007187e0018f518006b19e1004e
:10428c0019561a00cb1a40001bb41b00281c9b00ab
:10429c001c0e1d00811df3001d641e00d51e460062
:1042ac001fb61f0025209400200321007121de0081
:1042bc00214b2200b7222300238e2300f923630015
:1042cc0024cd240036259e00250626006d26d4001c
:1042dc00263a27009f27040028682800cc282e00a7
:1042ec0029912900f22953002ab32a00132b7100bb
:1042fc002bd02b002d2c8a002ce62c00412d9c0061
:10430c002df62d004f2ea7002eff2e00562fac00a1
:10431c002f0230005730aa0030fe30005031a2007e
:10432c0031f331004332920032e032002e337b0005
:10433c0033c7330012345d0034a63400ef34370039
:10434c00357e3500c4350900364e36009236d40021
:10435c00361637005737980037d7370015385300c3
:10436c0038903800cb380600394039007939b10023
:10437c0039e939001f3a54003a893a00bc3aef0047
:10438c003a213b00523b81003bb03b00de3b0b0033
:10439c003c373c00633c8d003cb63c00de3c0500e9
:1043ac003d2c3d00513d75003d993d00bb3ddd0070
:1043bc003dfd3d001d3e3b003e593e00753e9100cb
:1043cc003eac3e00c53ede003ef53e000c3f2200fa
:1043dc003f363f004a3f5d003f6e3f007f3f8e00ff
:1043ec003f9d3f00ab3fb7003fc33f00cd3fd700e1
:1043fc003fe03f00e73fee003ff33f00f83ffb009c
:10440c003ffe3f00ff3f000040ff3f00c018000090
:10441c0002000000820000005a180000d4170000af
:0c442c009c000000800000000000000068
:020000040000fa
:10443800858fab000200320085cfab00250032002b
:1044480040062000407c880010002000307c880056
:1044580011022000517c8800a20920008107200059
:1044680053f8200081497800824978008049780013
:10447800720520006104200043f82000814978007b
:10448800824978008049780000c02000a072880026
:1044980000102000606d8800f0ef2f00b0728800d7
:1044a800f0f32f009073880001002700000021001e
:1044b800237c800003816000800f5100fcff3a00dc
:1044c80084afab00feff320077fc07002be3a800a7
:1044d800ffff3700a10920002200200080072000ec
:1044e80053f8200080497800814978008249780093
:1044f80071052000120020006004200043f820000d
:1045080080497800814978008249780000000000dd
:10451800000000000100270000002200237c80002a
:1045280003816000800f5100c5ff3200237c8000aa
:1045380003816000800f5100f8ff3a00c0ff370088
:00000001FF
